:10000000BDC00000D8C00000D6C00000D4C00000B1
:10001000D2C00000D0C00000CEC00000CCC00000A4
:10002000CAC00000C8C00000B1C20000DFC20000AA
:10003000C2C00000C0C00000BEC00000BCC00000C4
:10004000BAC00000B8C00000B6C00000B4C00000D4
:10005000B2C00000B0C00000AEC00000ACC00000E4
:10006000AAC00000A8C00000A6C00000A4C00000F4
:10007000A2C00000A0C000009EC000009CC0000004
:100080009AC0000098C0000096C0000094C0000014
:1000900092C0000090C00000000100006101120049
:1000A00002000000012200210000120109002200CC
:1000B0000022013F00030000FC000401030904F0DA
:1000C000000A02030904D6001803030904D000043F
:1000D000040331000000180344006100790074003B
:1000E0006F006E00610020005500530042000000C8
:1000F0000A035300450047004100000004030904BF
:1001000009022200010100803209040000010300FD
:100110000000092111010001223F00070581034071
:10012000000A05010904A1019504751016000026B6
:10013000FF0336000046FF03093009310932093553
:100140008102951875011500250135004501050945
:100150001901291881020508094B9518750191208C
:10016000C01201000200000040A30CFC3C00010191
:1001700002030101C13201C03200000011241FBE80
:10018000CFEFD0E2DEBFCDBF11E0A0E0B1E0EEECFA
:10019000F8E000E00BBF02C007900D92A230B1075B
:1001A000D9F721E0A2E0B1E001C01D92A139B20768
:1001B000E1F76DD18AC324CF96E890937A00982F07
:1001C0009072906890937B008F7190910001892BC1
:1001D00080937C0086EC80937A0080917A0086FD83
:1001E000FCCF809178002091790090E0922B0895C7
:1001F000883008F4E1CF80E090E008959F92AF92BC
:10020000BF92CF92DF92EF92FF920F931F93CF9303
:10021000DF9396B0B9B0ACB0892D90E06C01CC0CF6
:10022000CD2CCC1CDD0821E0C22690910D01C0FA36
:1002300090F996FAEE24E0F8F12C41E0E426E0FA99
:1002400091F995FA002700F910E071E0072700FB0B
:1002500092F994FAAA27A0F9CA2F20E0D22F41E000
:10026000C427C0FB93F993FAAA27A0F9B0E021E0D4
:10027000A227A0FB94F992FAEE27E0F9F0E041E022
:10028000E427E0FB95F991FA222720F930E071E0AC
:100290002727892F20FB86F9292D2170A1E02A2705
:1002A00020FB87F980930D012B2D30E0C901880FC9
:1002B000892F881F990B41E08427B0910E0180FBA4
:1002C000B0F9EA2DF0E09A2D91709A278B2F90FBD0
:1002D00081F9B5FA662760F970E091E06927782F17
:1002E00060FB72F9B4FA442740F950E081E04827F6
:1002F00040FB73F98B2D81708A2780FB77F9609121
:100300000F016C7F6B7F60930F01C901D3E095955E
:100310008795DA95E1F7A901559547955595479544
:1003200035952795A6FC16C081709927A1E08A27EC
:1003300080FB74F94170552781E0482740FB75F92F
:100340002170332791E0292720FB76F970930E0165
:1003500067782DC07F7C7F7B70930E018170992719
:10036000A1E08A274170552771E04727440F551FA8
:10037000840F951F21703327A1E02A27220F331FF6
:10038000220F331F820F931F82309105A1F02CF4AE
:100390000197A1F4677C60640AC08530910529F05B
:1003A000069761F46778606202C0677860616F7772
:1003B00060930F010AC067786068FACF80910F01DF
:1003C00088608F788F7780930F01EE0FEF2FEE1FED
:1003D000FF0BEF2B79F480E092E090930C01809377
:1003E0000B0182E005DF90930A018093090181E00F
:1003F000FFDE0EC082E0FCDE90930C0180930B01C7
:1004000081E0F6DE90930A018093090180E092E09A
:10041000909308018093070180E0EADE9093060143
:1004200080930501DF91CF911F910F91FF90EF9085
:10043000DF90CF90BF90AF909F90089596D0181600
:10044000BCF440E0992787FD9095242F30E02817D1
:10045000390774F4F901EF5AFE4F218130813130B0
:1004600021F0323019F425B901C022B94D5FEDCF2A
:10047000C5DE4CD0E3CF17B88FEF88B91AB88BB967
:100480001DB88EB981B912B884B915B80895A89568
:1004900084B7877F84BF88E10FB6F89480936000AB
:1004A000109260000FBE80E880936100109261009E
:1004B00013D029D08823E9F32FEF83ED90E3215067
:1004C00080409040E1F700C00000D5DFB7DF8091A9
:1004D000E80080FFFCCF089581E88093D70080EA90
:1004E0008093D80086E189BD09B400FEFDCF80E984
:1004F0008093D8001092E000109204018CE0809369
:10050000E200789408958091040108958091040197
:10051000811102C08FEF08958FB7F89492E3909302
:10052000030191E09093E9002091E80025FD0CC0C3
:100530008FBF809103018823B1F08091040188234B
:1005400049F38FB7F894EECFE5E0F1E09191909305
:10055000F10091E0E031F907C9F79AE39093E800E0
:100560008FBF81E0089580E00895CF93C09110017E
:100570004C2F552747FD509561E171E081E591E0F1
:100580009BD1109210018C2FCF9108951F920F9242
:100590000FB60F9211248F939F938091E1001092D8
:1005A000E10083FF0FC01092E90091E09093EB000F
:1005B0001092EC0092E39093ED0098E09093F0009D
:1005C0001092040182FF0BC080910401882339F04E
:1005D00080910301882319F08150809303019F913A
:1005E0008F910F900FBE0F901F9018951F920F9232
:1005F0000FB60F9211240BB60F92EF92FF920F934A
:100600001F932F933F934F935F936F937F938F939A
:100610009F93AF93BF93EF93FF93CF93DF931F927B
:10062000CDB7DEB71092E9008091E80083FF27C1C3
:100630009091F1008091F1003091F1002091F10052
:10064000E32EF12CF22A0091F1002091F10010E04C
:10065000122B2091F1006091F10032EF3093E8000D
:10066000863009F046C038E088E990E0FC01459109
:1006700054914E155F0539F4FC0132964591549121
:100680004017510721F00796315081F7F8C0FC015F
:10069000349645915491FC013696849130E0362B86
:1006A0002F3F310519F010F02FEF30E0281708F434
:1006B000822F3EEF9091E800292F2570D9F392FD0B
:1006C000E1C0982F813408F090E4FA01292F222309
:1006D00031F064916093F10021503196F8CF490FC9
:1006E000511D891B3093E8008111E4CF903411F340
:1006F000C9C0853049F48EEF8093E800E8DE8E2D86
:1007000080688093E300BEC0893039F5911145C0FF
:10071000E09204018EEF8093E80041E083E791E0EE
:100720004093E9009C012F5F3F4FFC01549150938F
:10073000EB00552359F0F90124912093EC009C0122
:100740002D5F3F4F319684918093ED004F5F453090
:1007500011F0C901E5CF8EE141C0883039F49038FD
:1007600009F041C0B4DE8091040156C0811115C06A
:100770009983ADDE9981923851F40093E90080911C
:10078000EB0085FB882780F91092E90001C080E02A
:100790008093F1001092F1006EC0282F2D7F213040
:1007A00011F5923001F5EF2809F069C00F779FEF3E
:1007B000900F943008F063C09EEF9093E800009390
:1007C000E900833009F45BC089E18093EB0081E0AC
:1007D00090E0002E01C0880F0A94EAF78093EA00A7
:1007E0001092EA004FC0012B09F049C0913AB9F4C8
:1007F000813039F46CDE80E41092F1008150E1F731
:100800003AC0823021F463DE8091020105C083305A
:10081000B1F55DDE809101018093F1002CC0913231
:1008200071F58930F9F48091E80082FFFCCF809166
:1008300010018D3394F4E82FFF27E7FDF095909198
:10084000F100EF5EFE4F90839091F10091839091C3
:10085000F10092838D5F809310018BEF8093E8000D
:1008600036DE09C08A3019F4F092020104C08B30E0
:1008700031F4E09201018EEF8093E80003C081E241
:100880008093EB000F90DF91CF91FF91EF91BF919B
:10089000AF919F918F917F916F915F914F913F9118
:1008A0002F911F910F91FF90EF900F900BBE0F9023
:1008B0000FBE0F901F901895FB01DC0102C0019044
:0E08C0000D9241505040D8F70895F894FFCFA4
:0208CE004001E7
:00000001FF
