S00F00004D6567614A6F792E7372656369
S11300000C94B0000C94CD000C94CD000C94CD0055
S11300100C94CD000C94CD000C94CD000C94CD0028
S11300200C94CD000C94CD000C94CD000C944E0295
S11300300C947E020C94CD000C94CD000C94CD0055
S11300400C94CD000C94CD000C94CD000C94CD00F8
S11300500C94CD000C94CD000C94CD000C94CD00E8
S11300600C94CD000C94CD000C94CD000C94CD00D8
S11300700C94CD000001000045011200020000DCD8
S1130080002200210000EE000900220000FE0047CB
S113009000030000D8000401030904CC000A020391
S11300A00904B2001803030904AC0004040331007A
S11300B00000180344006100790074006F006E00B2
S11300C06100200055005300420000000A03530061
S11300D0450047004100000004030904090222000E
S11300E0010100803209040000010300000009211D
S11300F0110100012247000705810340000A0501A0
S11301000904A1019508751016000026FF033600A6
S11301100046FF030930093109320933093409352E
S11301200936093781029518750115002501350036
S1130130450105091901291881020508094B95187B
S113014075019120C01201000200000040A30CFCC4
S11301503C00010102030101C13201C03200000070
S113016011241FBECFEFD2E0DEBFCDBF11E0A0E06F
S1130170B1E0E4EEF7E002C005900D92A230B107C1
S1130180D9F721E0A2E0B1E001C01D92A939B2077C
S1130190E1F70E943D010C94F0030C94000090934D
S11301A0CD008093CC0088E18093C90086E08093E1
S11301B0CA0008958091C80087FFFCCF8091CE00CB
S11301C008959091C80095FFFCCF8093CE000895C8
S11301D0CF93C82F80E00E94E1008C2F0E94E100A1
S11301E089E19091C80097FD0AC0EFE9FFE03197DB
S11301F0F1F700C000008150A1F78FEF02C0809199
S1130200CE00CF9108951F93CF93DF93182F0E94B0
S1130210E800C82FD0E081E0810F0E94E80090E060
S1130220982F88278C0F9D1FDF91CF911F910895E0
S11302308091C80087FF03C08091CE00F9CF089554
S11302409AB121E030E001C0220F8A95EAF7922B9F
S11302509AB98BB1209528232BB908959AB121E03E
S113026030E001C0220F8A95EAF7822F8095892316
S11302708AB98BB1822B8BB90895CF93DF931F92E8
S1130280CDB7DEB7A89584B7877F84BF88E10FB662
S1130290F89480936000109260000FBE80E8809311
S11302A061001092610083E090E00E94CF0084E03E
S11302B00E9420010E94F6010E940A028823E1F3B1
S11302C084E00E942E0185E00E9420012FEF43ED7F
S11302D050E3215040405040E1F700C0000085E069
S11302E00E942E0184E00E9420010E94DA00853AD7
S11302F0E1F784E00E942E010E943C02082F1816A8
S1130300F4F484E00E94200190E0112707FD109589
S1130310292F30E0201731077CF4F901E75AFE4F0A
S11303207F01808199830E94E100F70181810E940D
S1130330E10099819D5FECCF84E00E942E0185E06D
S11303400E9420010E94180180E00E940301909302
S113035006018093050182E00E9403019093080145
S11303608093070184E00E94030190930A01809323
S1130370090186E00E94030190930C0180930B0114
S113038088E00E94030190930E0180930D018AE09E
S11303900E9403019093100180930F018CE00E944E
S11303A0030190931201809311018EE00E940301D6
S11303B0909314018093130180E10E94E8008093DC
S11303C0150181E10E94E8008093160182E10E94F8
S11303D0E8008093170185E00E942E010E940D021F
S11303E08BCF8091E80080FFFCCF089580EA809352
S11303F0D80086E089BD09B400FEFDCF80E8809373
S1130400D8001092E000109204018CE08093E20086
S113041078940895809104010895809104018111D4
S113042002C08FEF08958FB7F89492E3909303017D
S113043091E09093E9002091E80025FD0CC08FBF66
S1130440809103018823B1F080910401882349F34A
S11304508FB7F894EECFE5E0F1E091919093F1003D
S113046091E0E831F907C9F79AE39093E8008FBF68
S113047081E0089580E00895CF93C09118014C2F36
S1130480552747FD509569E171E089E591E00E94A7
S1130490E703109218018C2FCF9108951F920F92A9
S11304A00FB60F9211248F939F938091E1001092C5
S11304B0E10083FF0FC01092E90091E09093EB00FC
S11304C01092EC0092E39093ED0098E09093F0008A
S11304D01092040182FF0BC080910401882339F03B
S11304E080910301882319F08150809303019F9127
S11304F08F910F900FBE0F901F9018951F920F921F
S11305000FB60F921124EF92FF920F931F932F9324
S11305103F934F935F936F937F938F939F93AF9387
S1130520BF93EF93FF93CF93DF931F92CDB7DEB7C3
S11305301092E9008091E80083FF2EC19091F100B0
S11305408091F1003091F1002091F100E32EF12C23
S1130550F22A0091F1002091F10010E0122B209179
S1130560F1006091F10032EF3093E800863009F039
S113057046C038E084E790E0FC01459154914E1563
S11305805F0539F4FC0132964591549140175107A7
S113059021F00796315081F7FFC0FC013496459154
S11305A05491FC013696849130E0362B2F3F31056F
S11305B019F010F02FEF30E0281708F4822F3EEFE7
S11305C09091E800292F2570D9F392FDE8C0982F67
S11305D0813408F090E4FA01292F222331F0649148
S11305E06093F10021503196F8CF490F511D891BBA
S11305F03093E8008111E4CF903411F3D0C08530FA
S113060051F48EEF8093E8000E94F1018E2D8068F2
S11306108093E300C4C0893039F5911147C0E0925A
S113062004018EEF8093E80041E087E591E0409378
S1130630E9009C012F5F3F4FFC0154915093EB0064
S1130640552359F0F90124912093EC009C012D5F6E
S11306503F4F319684918093ED004F5F453011F008
S1130660C901E5CF8EE143C0883041F4903809F0E8
S113067043C00E94F101809104015AC0811116C047
S113068099830E94F1019981923851F40093E90011
S11306908091EB0085FB882780F91092E90001C066
S11306A080E08093F1001092F10072C0282F2D7F1A
S11306B0213011F5923001F5EF2809F06DC00F7764
S11306C09FEF900F943008F067C09EEF9093E8007E
S11306D00093E900833009F45FC089E18093EB0063
S11306E081E090E0002E01C0880F0A94EAF780931D
S11306F0EA001092EA0053C0012B09F04DC0913A70
S1130700D1F4813041F40E94F10180E41092F100AF
S11307108150E1F73DC0823029F40E94F1018091BB
S1130720020106C08330C1F50E94F10180910001ED
S11307308093F1002DC0913279F5893001F58091D3
S1130740E80082FFFCCF809118018D3394F4E82FE8
S1130750FF27E7FDF0959091F100E75EFE4F90834F
S11307609091F10091839091F10092838D5F809339
S113077018018BEF8093E8000E94F10109C08A30D0
S113078019F4F092020104C08B3031F4E0920001BC
S11307908EEF8093E80003C081E28093EB000F901A
S11307A0DF91CF91FF91EF91BF91AF919F918F9185
S11307B07F916F915F914F913F912F911F910F9175
S11307C0FF90EF900F900FBE0F901F901895FB01B4
S11307D0DC0102C001900D9241505040D8F70895B9
S10707E0F894FFCFB7
S10507E401000E
S9030000FC
