:100000000C94FB000C9418010C9418010C9418012A
:100010000C9418010C9418010C9418010C941801FC
:100020000C9418010C9418010C9418010C946103A1
:100030000C9491030C9418010C9418010C94180161
:100040000C9418010C9418010C9418010C941801CC
:100050000C9418010C9418010C9418010C941801BC
:100060000C9418010C9418010C9418010C941801AC
:100070000C94180100010000DC011200020000DCF9
:10008000002200210000EE000900220000FE00DE38
:1000900000030000D8000401030904CC000A020395
:1000A0000904B2001803030904AC0004040331007E
:1000B0000000180344006100790074006F006E00B6
:1000C0006100200055005300420000000A03530065
:1000D0004500470041000000040309040902220012
:1000E0000101008032090400000103000000092121
:1000F0001101000122DE000705810340000A05010D
:100100000902A10109018501A100050919012903BD
:100110001500250195037501810295017505810181
:10012000050109300931093216008026FF7F950349
:1001300075108106C0C005010902A10109018502EF
:10014000A100050919012903150025019503750171
:1001500081029501750581010501093009310932D6
:1001600016008026FF7F950375108106C0C005012B
:100170000902A10109018503A1000509190129034B
:100180001500250195037501810295017505810111
:10019000050109300931093216008026FF7F9503D9
:1001A00075108106C0C005010904A101A1008504E4
:1001B0000509190129081500250195087501810215
:1001C00005019503751016000026FF033600004652
:1001D000FF030933093409358102C0C0120100024E
:1001E00000000040A30CFC3C00010102030101C11E
:1001F0003201C032000011241FBECFEFD2E0DEBFBB
:10020000CDBF11E0A0E0B1E0EAE0FAE002C0059065
:100210000D92A230B107D9F721E0A2E0B1E001C010
:100220001D92A63AB207E1F70E9488010C940305DB
:100230000C9400009093CD008093CC0088E18093D3
:10024000C90086E08093CA0008958091C80087FFA6
:10025000FCCF8091CE0008959091C80095FFFCCF0F
:100260008093CE000895CF93C82F80E00E942C0188
:100270008C2F0E942C0189E19091C80097FD0AC043
:10028000EFE9FFE03197F1F700C000008150A1F7DE
:100290008FEF02C08091CE00CF9108951F93CF932E
:1002A000DF93182F0E943301C82FD0E081E0810F27
:1002B0000E94330190E0982F88278C0F9D1FDF91BB
:1002C000CF911F9108958091C80087FF03C080914E
:1002D000CE00F9CF08959AB121E030E001C0220F9D
:1002E0008A95EAF7922B9AB98BB1209528232BB9DE
:1002F00008959AB121E030E001C0220F8A95EAF713
:10030000822F809589238AB98BB1822B8BB908956E
:10031000CF93DF931F92CDB7DEB7A89584B7877FC1
:1003200084BF88E10FB6F89480936000109260005B
:100330000FBE80E8809361001092610083E090E03E
:100340000E941A0184E00E946B010E947C020E94BC
:1003500090028823E1F384E00E94790185E00E9405
:100360006B012FEF43ED50E3215040405040E1F747
:1003700000C0000085E00E94790184E00E946B01CA
:100380000E942501853AE1F784E00E9479010E94EC
:100390004F03082F1816F4F484E00E946B0190E0DC
:1003A000112707FD1095292F30E0201731077CF425
:1003B000F901EA59FE4F7F01808199830E942C0147
:1003C000F70181810E942C0199819D5FECCF84E02F
:1003D0000E94790185E00E946B010E94630180E028
:1003E0000E94330180935E0181E00E94330180937B
:1003F0005F0182E00E944E01909361018093600151
:1004000084E00E944E01909363018093620186E034
:100410000E944E01909365018093640188E00E94E0
:1004200033018093050189E00E9433018093060126
:100430008AE00E944E0190930801809307018CE0AE
:100440000E944E0190930A01809309018EE00E9460
:100450004E0190930C0180930B0180E10E943301C7
:100460008093560181E10E9433018093570182E11C
:100470000E944E01909359018093580184E10E949B
:100480004E0190935B0180935A0186E10E944E01D8
:1004900090935D0180935C0188E10E943301809319
:1004A0004E0189E10E94330180934F018AE10E944D
:1004B0004E0190935101809350018CE10E944E01B6
:1004C00090935301809352018EE10E944E019093CC
:1004D00055018093540185E00E9479010E949302A6
:1004E0000E94C2020E94F1020E94200350CF80911C
:1004F000E80080FFFCCF089580EA8093D80086E072
:1005000089BD09B400FEFDCF80E88093D800109229
:10051000E000109204018CE08093E200789408954A
:1005200080910401089580910401811102C08FEF30
:1005300008958FB7F89492E39093030191E090931C
:10054000E9002091E80025FD0CC08FBF80910301D8
:100550008823B1F080910401882349F38FB7F89480
:10056000EECFEEE5F1E091919093F10091E0E63667
:10057000F907C9F79AE39093E8008FBF81E00895E7
:1005800080E0089580910401811102C08FEF0895E9
:100590008FB7F89492E39093030191E09093E90070
:1005A0002091E80025FD0CC08FBF809103018823B6
:1005B000B1F080910401882349F38FB7F894EECF0E
:1005C000E5E0F1E091919093F10091E0ED30F907D1
:1005D000C9F79AE39093E8008FBF81E0089580E027
:1005E000089580910401811102C08FEF08958FB7A3
:1005F000F89492E39093030191E09093E9002091A5
:10060000E80025FD0CC08FBF809103018823B1F065
:1006100080910401882349F38FB7F894EECFE6E583
:10062000F1E091919093F10091E0EE35F907C9F76F
:100630009AE39093E8008FBF81E0089580E00895E9
:1006400080910401811102C08FEF08958FB7F89453
:1006500092E39093030191E09093E9002091E800E8
:1006600025FD0CC08FBF809103018823B1F08091DC
:100670000401882349F38FB7F894EECFEEE4F1E05C
:1006800091919093F10091E0E635F907C9F79AE36B
:100690009093E8008FBF81E0089580E00895CF93A4
:1006A000C0910D014C2F552747FD50956EE071E02C
:1006B00086E691E00E94FA0410920D018C2FCF91F2
:1006C00008951F920F920FB60F9211248F939F934C
:1006D0008091E1001092E10083FF0FC01092E900C9
:1006E00091E09093EB001092EC0092E39093ED0078
:1006F00098E09093F0001092040182FF0BC080916B
:100700000401882339F080910301882319F0815076
:10071000809303019F918F910F900FBE0F901F90B8
:1007200018951F920F920FB60F921124EF92FF921D
:100730000F931F932F933F934F935F936F937F93E9
:100740008F939F93AF93BF93EF93FF93CF93DF93D9
:100750001F92CDB7DEB71092E9008091E80083FFC9
:100760002EC19091F1008091F1003091F100209123
:10077000F100E32EF12CF22A0091F1002091F1001A
:1007800010E0122B2091F1006091F10032EF3093D4
:10079000E800863009F046C038E084E790E0FC01CC
:1007A000459154914E155F0539F4FC0132964591FF
:1007B00054914017510721F00796315081F7FFC03F
:1007C000FC01349645915491FC013696849130E0B9
:1007D000362B2F3F310519F010F02FEF30E028179E
:1007E00008F4822F3EEF9091E800292F2570D9F36D
:1007F00092FDE8C0982F813408F090E4FA01292F87
:10080000222331F064916093F10021503196F8CFAA
:10081000490F511D891B3093E8008111E4CF9034BA
:1008200011F3D0C0853051F48EEF8093E8000E9420
:1008300077028E2D80688093E300C4C0893039F53B
:10084000911147C0E09204018EEF8093E80041E0EF
:100850008EEE91E04093E9009C012F5F3F4FFC0139
:1008600054915093EB00552359F0F90124912093B2
:10087000EC009C012D5F3F4F319684918093ED00F9
:100880004F5F453011F0C901E5CF8EE143C088309C
:1008900041F4903809F043C00E947702809104012E
:1008A0005AC0811116C099830E94770299819238AB
:1008B00051F40093E9008091EB0085FB882780F9D3
:1008C0001092E90001C080E08093F1001092F100E5
:1008D00072C0282F2D7F213011F5923001F5EF28BD
:1008E00009F06DC00F779FEF900F943008F067C04C
:1008F0009EEF9093E8000093E900833009F45FC015
:1009000089E18093EB0081E090E0002E01C0880F28
:100910000A94EAF78093EA001092EA0053C0012B90
:1009200009F04DC0913AD1F4813041F40E94770230
:1009300080E41092F1008150E1F73DC0823029F44B
:100940000E9477028091020106C08330C1F50E94A7
:100950007702809100018093F1002DC0913279F5EA
:10096000893001F58091E80082FFFCCF80910D0174
:100970008D3394F4E82FFF27E7FDF0959091F10077
:10098000E25FFE4F90839091F10091839091F1008E
:1009900092838D5F80930D018BEF8093E8000E941E
:1009A000770209C08A3019F4F092020104C08B303A
:1009B00031F4E09200018EEF8093E80003C081E201
:1009C0008093EB000F90DF91CF91FF91EF91BF915A
:1009D000AF919F918F917F916F915F914F913F91D7
:1009E0002F911F910F91FF90EF900F900FBE0F90DE
:1009F0001F901895FB01DC0102C001900D9241503F
:0A0A00005040D8F70895F894FFCF96
:020A0A000100E9
:00000001FF
