:100000000C94AC000C94C9000C94C9000C94C90069
:100010000C94C9000C94C9000C94C9000C94C9003C
:100020000C94C9000C94C9000C94C9000C942D02C6
:100030000C945D020C94C9000C94C9000C94C90086
:100040000C94C9000C94C9000C94C9000C94C9000C
:100050000C94C9000C94C9000C94C9000C94C900FC
:100060000C94C9000C94C9000C94C9000C94C900EC
:100070000C94C900000100003D011200020000DCE8
:10008000002200210000EE000900220000FE003FD7
:1000900000030000D8000401030904CC000A020395
:1000A0000904B2001803030904AC0004040331007E
:1000B0000000180344006100790074006F006E00B6
:1000C0006100200055005300420000000A03530065
:1000D0004500470041000000040309040902220012
:1000E0000101008032090400000103000000092121
:1000F00011010001223F000705810340000A0501AC
:100100000904A1019504751016000026FF033600AE
:100110000046FF030930093109320935810295187B
:10012000750115002501350045010509190129183A
:1001300081020508094B951875019120C012010034
:100140000200000040A30CFC3C000101020301017D
:10015000C13201C03200000011241FBECFEFD2E037
:10016000DEBFCDBF11E0A0E0B1E0E2EAF7E002C0FF
:1001700005900D92A230B107D9F721E0A2E0B1E0DD
:1001800001C01D92A139B207E1F70E9439010C9418
:10019000CF030C9400009093CD008093CC0088E1B5
:1001A0008093C90086E08093CA0008958091C800BA
:1001B00087FFFCCF8091CE0008959091C80095FFF5
:1001C000FCCF8093CE000895CF93C82F80E00E948B
:1001D000DD008C2F0E94DD0089E19091C80097FD21
:1001E0000AC0EFE9FFE03197F1F700C0000081504D
:1001F000A1F78FEF02C08091CE00CF9108951F9399
:10020000CF93DF93182F0E94E400C82FD0E081E045
:10021000810F0E94E40090E0982F88278C0F9D1F8B
:10022000DF91CF911F9108958091C80087FF03C08F
:100230008091CE00F9CF08959AB121E030E001C05D
:10024000220F8A95EAF7922B9AB98BB12095282331
:100250002BB908959AB121E030E001C0220F8A95B0
:10026000EAF7822F809589238AB98BB1822B8BB9CB
:100270000895CF93DF931F92CDB7DEB7A89584B7CB
:10028000877F84BF88E10FB6F89480936000109256
:1002900060000FBE80E8809361001092610083E0EF
:1002A00090E00E94CB0084E00E941C010E94D501D6
:1002B0000E94E9018823E1F384E00E942A0185E09D
:1002C0000E941C012FEF43ED50E32150404050406D
:1002D000E1F700C0000085E00E942A0184E00E944E
:1002E0001C010E94D600853AE1F784E00E942A01B1
:1002F00000E012E00E941B02E82E1816F4F484E0DD
:100300000E941C0190E0FF24E7FCF094292F30E0CC
:100310002E153F057CF4F901EF5AFE4F6F018081E5
:1003200099830E94DD00F60181810E94DD009981A0
:100330009D5FECCF84E00E942A0185E00E941C01B1
:100340000E94140180E00E94FF00909306018093B8
:100350000501109308010093070182E00E94FF004D
:1003600090930A018093090184E00E94FF0090931A
:100370000C0180930B0186E00E94E40080930D0144
:1003800087E00E94E40080930E0188E00E94E40070
:1003900080930F0185E00E942A010E94EC01AACF00
:1003A0008091E80080FFFCCF089580EA8093D80018
:1003B00086E089BD09B400FEFDCF80E88093D800B7
:1003C0001092E000109204018CE08093E200789497
:1003D000089580910401089580910401811102C063
:1003E0008FEF08958FB7F89492E39093030191E013
:1003F0009093E9002091E80025FD0CC08FBF80910B
:1004000003018823B1F080910401882349F38FB759
:10041000F894EECFE5E0F1E091919093F10091E056
:10042000E031F907C9F79AE39093E8008FBF81E0C4
:10043000089580E00895CF93C09110014C2F552767
:1004400047FD509561E171E081E591E00E94C603AE
:10045000109210018C2FCF9108951F920F920FB61A
:100460000F9211248F939F938091E1001092E100ED
:1004700083FF0FC01092E90091E09093EB0010927F
:10048000EC0092E39093ED0098E09093F0001092CE
:10049000040182FF0BC080910401882339F0809110
:1004A0000301882319F08150809303019F918F915C
:1004B0000F900FBE0F901F9018951F920F920FB6BE
:1004C0000F921124EF92FF920F931F932F933F935C
:1004D0004F935F936F937F938F939F93AF93BF934C
:1004E000EF93FF93CF93DF931F92CDB7DEB71092B8
:1004F000E9008091E80083FF2EC19091F100809186
:10050000F1003091F1002091F100E32EF12CF22A5C
:100510000091F1002091F10010E0122B2091F100E8
:100520006091F10032EF3093E800863009F046C068
:1005300038E084E790E0FC01459154914E155F0549
:1005400039F4FC013296459154914017510721F03E
:100550000796315081F7FFC0FC01349645915491C4
:10056000FC013696849130E0362B2F3F310519F08F
:1005700010F02FEF30E0281708F4822F3EEF909113
:10058000E800292F2570D9F392FDE8C0982F813417
:1005900008F090E4FA01292F222331F0649160934E
:1005A000F10021503196F8CF490F511D891B30932E
:1005B000E8008111E4CF903411F3D0C0853051F4BC
:1005C0008EEF8093E8000E94D0018E2D806880938A
:1005D000E300C4C0893039F5911147C0E0920401AD
:1005E0008EEF8093E80041E08FE491E04093E900D2
:1005F0009C012F5F3F4FFC0154915093EB0055231A
:1006000059F0F90124912093EC009C012D5F3F4F9C
:10061000319684918093ED004F5F453011F0C90110
:10062000E5CF8EE143C0883041F4903809F043C0F3
:100630000E94D001809104015AC0811116C0998393
:100640000E94D0019981923851F40093E900809181
:10065000EB0085FB882780F91092E90001C080E05B
:100660008093F1001092F10072C0282F2D7F21306D
:1006700011F5923001F5EF2809F06DC00F779FEF6B
:10068000900F943008F067C09EEF9093E8000093BD
:10069000E900833009F45FC089E18093EB0081E0D9
:1006A00090E0002E01C0880F0A94EAF78093EA00D8
:1006B0001092EA0053C0012B09F04DC0913AD1F4D9
:1006C000813041F40E94D00180E41092F100815009
:1006D000E1F73DC0823029F40E94D00180910201EF
:1006E00006C08330C1F50E94D00180910001809343
:1006F000F1002DC0913279F5893001F58091E80043
:1007000082FFFCCF809110018D3394F4E82FFF27F6
:10071000E7FDF0959091F100EF5EFE4F9083909190
:10072000F10091839091F10092838D5F809310018D
:100730008BEF8093E8000E94D00109C08A3019F441
:10074000F092020104C08B3031F4E09200018EEF90
:100750008093E80003C081E28093EB000F90DF916B
:10076000CF91FF91EF91BF91AF919F918F917F9129
:100770006F915F914F913F912F911F910F91FF903A
:10078000EF900F900FBE0F901F901895FB01DC01AA
:1007900002C001900D9241505040D8F70895F8944E
:0207A000FFCF89
:0207A200010054
:00000001FF
